:1000000000800020BD0100006916000021160000DC
:100010002116000021160000211600002116000004
:1000200021160000211600002116000069160000AC
:100030006916000021160000912600009526000098
:1000400069160000691600006916000069160000B4
:1000500069160000691600006916000069160000A4
:100060006916000069160000691600006916000094
:100070006916000069160000691600006916000084
:100080006916000069160000691600006916000074
:100090006916000069160000691600006916000064
:1000A0006916000069160000691600006916000054
:1000B000691600004514000051140000551400009A
:1000C0006114000065140000691400006916000046
:1000D0006916000069160000691600006916000024
:1000E0006916000069160000691600006916000014
:1000F0006916000069160000691600006916000004
:1001000069160000691600006916000069160000F3
:1001100069160000691600006916000069160000E3
:1001200069160000691600006916000069160000D3
:1001300069160000691600006916000069160000C3
:1001400069160000691600006916000069160000B3
:1001500069160000691600006916000069160000A3
:1001600069160000C5190000691600006916000034
:100170006916000069160000691600006916000083
:100180006916000069160000691600006916000073
:100190006916000069160000691600006916000063
:1001A0006916000069160000691600006916000053
:1001B000691600006916000069160000564B4CF2E3
:1001C000205210B51A804DF628121A8000BF00BFC9
:1001D00001F04EFA514B4FF010621A60504A9A608B
:1001E000504ADA60504A136813F4807304D14F49BF
:1001F0000B604FF4A85313604D4B1A78110703D5C9
:100200001A7842F008021A704A4B4B492A221A7097
:100210004A4A4B4B8B4204D252F8040F43F8040B6A
:10022000F8E7484B484900228B4202D243F8042B9E
:10023000FAE74649464A002352F8230041F82300D2
:1002400001336F2BF8D1434B434A802103F8011B44
:100250009342FBD1414B3D4A1A60414B8A221A70AE
:10026000A3F5805324225A70A0221A709A7992071B
:10027000FCD59A79D406FCD43A4A937903F00C035E
:10028000082B384BF9D103221A7140225A719A79FE
:100290009006FCD5334A9179324B4906FBD5324A58
:1002A000324911600221516020221A709A7902F0BD
:1002B0000C020C2AFAD12E4B2E4A1A602E4B2F4AD2
:1002C0001A6000225A60072243F8042C2C4AC3F813
:1002D0000C2D62B601F04CFA144B1B68DA0705D5F9
:1002E000284801F0E3F9284B284A1A60284B1B786C
:1002F0005B0609D5244C254B22689A4204D121483B
:1003000001F0D4F90023236001F0B8F903F0F4F907
:1003100002F08AFAFEE700BF0E200540308004405C
:10032000823F04000100002B10D0034014D0034092
:1003300002D0074000E00740D891FF1FA07A0000DC
:100340002087FF1FD891FF1FBC95FF1F0082FF1F52
:100350000000000000E400E05FE400E008ED00E0E1
:100360000050064000400640448004400000030165
:1003700004800440C010050014E000E0FF76010096
:1003800000002020299AB4621CE00340A5C3945ABF
:1003900000F00740FFFFFFFFFFFFFFFFFFFFFFFF32
:1003A000FFFFFFFFFFFFFFFFFFFFFFFFFFFFFFFF5D
:1003B000FFFFFFFFFFFFFFFFFFFFFFFFFFFFFFFF4D
:1003C000FFFFFFFFFFFFFFFFFFFFFFFFFFFFFFFF3D
:1003D000FFFFFFFFFFFFFFFFFFFFFFFFFFFFFFFF2D
:1003E000FFFFFFFFFFFFFFFFFFFFFFFFFFFFFFFF1D
:1003F000FFFFFFFFFFFFFFFFFFFFFFFFFFFFFFFF0D
:10040000FFFFFFFFFFFFFFFFFFFFFFFFDEF9FFFF23
:1004100010B5054C237833B9044B13B10448AFF33E
:1004200000800123237010BDD891FF1F0000000041
:100430009C7A0000084B10B51BB108490848AFF37F
:1004400000800848036803B910BD074B002BFBD0A0
:10045000BDE81040184700BF00000000DC91FF1FFE
:100460009C7A0000D891FF1F00000000F0B583B017
:100470000023154A154800931549164D164F00F0F4
:100480008FFC1648164A046840F2EE2613783BB1FA
:100490002B78DB0704D5036839685B1A0E2B06D866
:1004A000036811781B1B61B1B3F5FA6FEED90C210B
:1004B0000C4801F0C7FF0C4803B0BDE8F04002F063
:1004C000F1B8B342E2D9F2E74494FF1FA892FF1FAC
:1004D00020A107004895FF1FB495FF1F4C94FF1FF4
:1004E0003095FF1FD07500007487FF1F70B5354D24
:1004F000354882B0294600F043FD2B6803F00F0217
:10050000082A3ED0314A1268012A01D002B070BDDB
:10051000DB07FBD52E4B2F481B6801930A220023D3
:10052000019902F0D3F82A68264B002ADB7942DBD6
:1005300029492A4803F096FE284803F0C1FE0146E7
:10054000264801F07FFF2C681E4B14F0804423D115
:10055000DB798BB12B1922491A7A204803F082FEED
:100560001E4803F0ADFE01461C4801F06BFF01344C
:10057000EB79E4B2A342EDD8164802F093F802B04A
:1005800070BD184C184E2188C3F30310012282401D
:100590000A4322803070B5E7144D104C0FCD0FC4C4
:1005A00095E8030044F8040B204620F8141915219F
:1005B00001F048FFE0E70E49084822F0604203F0EE
:1005C00051FEB9E71492FF1FA892FF1F2887FF1F53
:1005D0004C94FF1F7487FF1F087600002492FF1FB2
:1005E00034760000FC91FF1F1092FF1F1C76000064
:1005F000E0750000F0B5134B40F20332013842EAD7
:10060000001099791860082401224FF0F10EE227BA
:10061000D326DC71C425B5241A724FF0160CA6221D
:100620006FF3000183F809C083F80AE0DF721E73DC
:100630005D739C73DA73997103481946BDE8F04005
:1006400000F0A0BD0092FF1FA892FF1F2DE9F0410E
:100650001B4C1C4FA379013840F2033242EA0015CB
:10066000884616200821E17160726FF30003F122C1
:10067000E226D321C420A371A272A623B522E6727A
:1006800021736073214601263846A273E373256007
:10069000267200F077FD0A2001F01CF8A37984F897
:1006A0000A8038466FF300030327042221462560A1
:1006B0002672E771A3716272BDE8F04100F062BD7D
:1006C0000092FF1FA892FF1FF0B40B4B9C790227EA
:1006D00000260C2501386FF3000440F20332DF716D
:1006E0001E725D7242EA00129C71194603481A603C
:1006F000F0BC00F047BD00BF0092FF1FA892FF1F93
:100700002DE9F041814C824D01F036FE23682860CE
:10071000012B75D0732871D1002B6FD17D4E7E4F88
:10072000DFF82C827D4801F0BDFF1A217C4801F0E2
:1007300089FE7A4801F0B6FF10217A4801F082FE66
:10074000764801F0AFFF1321774801F07BFE774B2D
:100750007248196801F0FAFF704801F0A3FF6F4872
:1007600001F0A0FF0F21724801F06CFE00230A2265
:1007700031786A4801F0AAFF684801F093FF0B2125
:100780006C4801F05FFE00230A223978634801F0CB
:100790009DFF624801F086FF604801F083FF12214F
:1007A000654801F04FFE5D4801F07CFF5B4801F0B9
:1007B00079FF1C21614801F045FE584801F072FFA5
:1007C000564801F06FFF0F215D4801F03BFED8F85D
:1007D0000010524801F0BAFF504801F063FF4F4843
:1007E00001F060FF0D21574801F02CFE4B4801F04D
:1007F00059FF554A0021012311602360BDE8F081B3
:1008000061381128FAD801A353F820F06D080000D0
:1008100093080000C3080000FD070000FD0700006A
:10082000FD070000FD070000FD070000AB08000009
:10083000FD070000FD070000FD070000FD070000A8
:10084000FD070000FD070000FD070000E3080000B1
:1008500055080000304F2F4E39783078FFF7F6FEFC
:100860003A4A286823680021118053E701F0C0FD4F
:1008700000283DDC274E3078102889BF0123264F01
:10088000254F33700022732322602B60DFF8C08075
:1008900048E701F0ADFD002831DC1F4F38781D4ED0
:1008A000102884BF01233B70ECE71A4E1A4F3078B2
:1008B000DFF89C80FFF708FF0022732322602B6083
:1008C00030E7DFF88C80134ED8F80030124FB3FABF
:1008D00083F35B0900217322C8F8003021602A608D
:1008E00020E7194A0121002311602360BDE8F0814F
:1008F0000A48084E01F094FFC0B23070BCE70748C8
:10090000054F01F08DFFC0B23870C8E7F491FF1FAA
:10091000F891FF1F1192FF1F1292FF1F7487FF1F94
:10092000407600005C760000707600002487FF1F90
:100930008476000094760000A0760000B476000073
:10094000D4760000E47600002087FF1FFC91FF1F93
:100950002887FF1FF0B585B001E0FFF7C7FD3748D6
:1009600000F0D8FA0028F8D101F042FD002801DD9E
:10097000FFF7C6FE324D334E2B680193019B326860
:100980009B1AB3F5FA7F07D92F4B1C68012C05D0B1
:100990002E4B1878FFF72EFE05B0F0BD2C482D4FDA
:1009A00001F080FE2B680393039B2A680292029950
:1009B00033600A220023264801F088FE244801F013
:1009C00071FE1221244801F03DFD214801F06AFE2C
:1009D0003B8823B917E00134112C1BD03B88621EE1
:1009E0001341DB07F7D504211C4801F02BFD2146FC
:1009F000174801F0ABFE0721194801F023FD144808
:100A000001F050FEE7E70D21164801F01BFD1048EC
:100A100001F048FE0E4801F045FE0821124801F0A1
:100A200011FD0B4801F03EFE094801F03BFE08486D
:100A300001F038FE064801F035FEA9E7A892FF1F35
:100A40004C94FF1FA492FF1F2087FF1F1192FF1FCE
:100A50007487FF1FFC91FF1FF476000008770000E9
:100A600010770000187700002877000000207047FA
:100A7000704700BF30B40B46054603C905EBC204FE
:100A8000043484E80300197911F0010F296812D1A8
:100A90001C6812481023843113FB0211A404204067
:100AA00008602968803113FB021230BC136823F4FC
:100AB00000131360704718688431102313FB021170
:100AC00020F0604008602968803113FB021230BCBE
:100AD000136843F400131360704700BF0000FC1F4D
:100AE0004388826810B59BB20446084602EB0311A6
:100AF000102200F0C1FC6388A1889BB2013393FBF4
:100B0000F1F201FB12339BB26380012010BD00BFE4
:100B1000F8B5204C204A21790546034601F0FD0135
:100B200002202A606FF30001002285F894011D273E
:100B300020261020C5F8A020C5F8F870A5F8966109
:100B4000A5F8980121712260114643F8B02F05F1F4
:100B5000F00243F8041F93424FF00004F9D1C5F8A6
:100B60008440C5F88840C5F88C40C5F8904098226C
:100B7000214605F1FC0003F021F91F220F2385F81F
:100B8000FC40C5F80841C5F80021C5F80C312846DD
:100B9000F8BD00BF4494FF1F0040024038B5D0F8B4
:100BA000A03003B138BD0446B0F89801000101F04F
:100BB00043FED4F8B020C4F8A000AAB10023B4F8D2
:100BC0009851B4F89611A4F89430C4F89C00A4F895
:100BD0009630C4F8AC20A4F8A430A4F89850A4F837
:100BE000A810A4F8A63038BDB4F89601000101F0B1
:100BF00023FEC4F8B0000246D4F8A000DEE700BF30
:100C0000F8B52C4BB3FBF1F5052DB3FBF5F6A1EBD5
:100C100006064BD900229E461746931CB5FBF3F4FB
:100C2000192C02F1010203FB04F3F6D8BEFBF3F327
:100C3000CB1A002BB8BF5B42B3422EDB2FD0052C62
:100C4000EBD87B1CB5FBF3F5053D142D1CD8B6F590
:100C5000967F19DC184A006805EB45055319515D6C
:100C60005A789B7801F0070141F48001D20441F4E5
:100C7000804102F460121B040A4303F4E02313438F
:100C800043EA07674760F8BD39210C4801F0DAFBF9
:100C90000B48BDE8F84001F005BD1E4617460B2C79
:100CA000CDD9122C9CBF1E461746C8E7012300274A
:100CB000C8E700BF0024F4002C87FF1F3477000032
:100CC0007487FF1F0F2930B404462DDC69BBD0F8B0
:100CD000A030012084F8940123B30022102523685A
:100CE000803315FB02330132196801F4001141F021
:100CF0008061196094F89401C0F11003D2B2DBB2A4
:100D00009342ECD80F2B0DD810204FF000612268D1
:100D1000803210FB03220133DBB2102B1160F6D1BD
:100D200094F8940130BC70470F21D4F8A03084F8B7
:100D300094111BB11029D0D10023E5E70846F1E753
:100D400090F89431C3F11003DBB29A4220D20368C9
:100D500010B41C68E4011CD41C6844F080441C607E
:100D60000468236843F08053236004682368DB0130
:100D7000FCD504F5086404EB820211600268136874
:100D800023F08053136002681368DB01FCD410BCAD
:100D9000704703F5086303EB820210BC1160F7E7AC
:100DA0002DE9F0410546164698460C469DF8187008
:100DB000FFF7F4FE2A68524B9A4200F08F80514AA6
:100DC0004F49137843F0800313702B688B427BD01C
:100DD0005A6822F400525A602A68136843F080432C
:100DE00013602A68136823F0004313602A681368AD
:100DF000DB02FCD4136883F0007313602B681A685D
:100E00009701FCD41A68D001FCD51A6842F400326C
:100E10001A6021462846FFF7F3FE2A68136843F458
:100E20008033136095F89431102B18BF002404D13F
:100E30001DE00134E4B29C4219D22246002128462A
:100E4000FFF77EFF95F89431C3F11003DBB2A342A4
:100E5000EFD9224631462846FFF70CFE95F894312B
:100E60000134C3F11003DBB2E4B29C42E5D32A683B
:100E7000136823F0805313602B681A68D101FCD4E7
:100E80001A681201FCD495F894112846FFF71AFF4E
:100E9000D5F8F83003F1604303F5644340221A703B
:100EA000D5F8F82053099B0003F1604303F5614333
:100EB00002F01F02012101FA02F21A602B684FF6BC
:100EC000FF729A62BDE8F081A2F5E732A2F5E27204
:100ED000136843F0100313602B6879E7B8F1010F32
:100EE00006BF03F518334833074B4FF40072012F48
:100EF0001A600CBF054B064B4FF400721A605EE798
:100F00000040024000500640309004404CA0044095
:100F100034900440D0F8F83030B45C09A10001F1FD
:100F2000604101F5614101220968144D03F01F037E
:100F300002FA03F3194008BF002280F8F42045F8B4
:100F40002430B0F8A430B0F8A6209BB292B29B1A1D
:100F500044BFB0F8A8209B1869B1D0F8F8104A092E
:100F6000920002F1604202F5614201F01F0101208E
:100F700000FA01F11160184630BC704780E100E0D2
:100F8000F8B50446D0F8F8001A4F4609B30003F14B
:100F9000604303F5614301221D6800F01F0002FA5F
:100FA00000F31D4214BF1546002584F8F45047F89D
:100FB0002630B4F8A420B4F8A63092B29BB29A427C
:100FC00016D004F1A400FFF78BFD94F8F45075B12E
:100FD000D4F8F82053099B0003F1604303F5614303
:100FE000012102F01F0201FA02F21A60F8BDF8BDF9
:100FF0000020ECE780E100E070B48B7913F0010F82
:10100000036828D00C681025843315FB023324F0C4
:10101000604412FB05F21C6003688C68883324BAB4
:101020009C500368CC688C3324BA9C508B79DC07C5
:101030001DD513F0020FCB7901684FEA034303F487
:10104000702301F1800114BF43F0476343F046630E
:101050008B5070BC70470D680E4C1026843316FB05
:101060000233AD042C4012FB06F21C60D4E713F0EF
:10107000020FCB7901684FEA034303F4702301F1B7
:10108000800114BF43F0416343F040638B5070BC58
:10109000704700BF0000FC1F0368F0B580331027C5
:1010A00017FB02338C791D688D80C5F34056C5F35C
:1010B0000343C5F3005E66F30004CB7106686EF36C
:1010C000410404F0FB046FF3C70417FB02668C7144
:1010D00091F806E0D6F884401EF0010F24F0604439
:1010E0000C60C5F3036504BFA40C0C60062D25D06D
:1010F000D6F88840CC72260A250C042B4FEA1464DB
:101100008E724D720C7210D900688C3017FB02027F
:10111000072B1268CA734FEA12244FEA12404FEAB3
:1011200012628C7348730A7307D807330B4400228A
:101130000F3103F8012F8B42FBD1F0BD8C7944F0C5
:1011400004048C71D4E700BF38B50B888D884888BB
:101150009BB2013393FBF5F405FB14339DB283B2CC
:101160009D420CD00B8888680C469BB2114600EB60
:101170000310102200F080F92580012038BD0020E6
:1011800038BD00BFF8B50446D0F8F8002B4E45092D
:10119000AB0003F1604303F5614301221F6800F0D7
:1011A0001F0002FA00F31F4208BF002284F8F42057
:1011B00046F82530B4F89430B4F896209BB292B239
:1011C0009A4218D00A46204604F19401FFF7BCFF6A
:1011D00094F8F43073B1D4F8F82053099B0003F16C
:1011E000604303F56143012102F01F0201FA02F29C
:1011F0001A60F8BDF8BD94F89421C2F11002D2B281
:101200000F2ADFD802F12D0504EB8505130104E058
:101210000132102A03F11003D4D055F8040B002832
:10122000F6D120688030C058C0F303600828EFD1A1
:101230002046D2B2FFF7E0FE0120C9E780E100E0DE
:101240002DE9F04F026889B0136B0393834605467E
:1012500000F1B40A0024994608E0022B3AD0013488
:10126000102C05F108050AF1040A2ED029FA04F31E
:10127000D907F4D5270102F18003DB59C3F30363D7
:10128000062B27D0082BE8D1DAF8000008B90BF1BB
:1012900094000188438889B29BB2994200F09D80F6
:1012A0000188438889B29BB29942D8D004A9FFF73C
:1012B00017FC002840F0B280DBF800200134102C2D
:1012C00005F108050AF1040AD0D1039B136309B0A4
:1012D000BDE8F08F04A9E2B25846FFF7DDFE9BF8A7
:1012E000FC306BB1D5F814319DF81620013352074C
:1012F000C5F8143104D5D5F818310133C5F81831C3
:10130000002201238DE88400A34002950BF18006A2
:101310000BF190081D4656F8040F28B1426812EAF6
:1013200005032BD1002A3FDBB045F4D1009B019F80
:10133000029D002B3FD09BF8FC3083B1BBF8A4305A
:10134000BBF8A6109AB28BB2D31A44BFBBF8A82040
:101350009B18DBF804219A4238BFCBF804310BEB21
:10136000C4031B7ADB0714D5DBF800306A688433CA
:1013700022F06042DA51DBF8002070E703681F6852
:101380002D4B9F4245D10020009B1843C3B20093D0
:10139000CAE76968DBF80030284A890484330A40C8
:1013A000DA51DBF800205AE702681768224A9742B0
:1013B0003CD11846E8E704AA0BF1A4015846FFF710
:1013C000C3FE0028B7D19BF8FC30002BC7D0DBF858
:1013D00008310133CBF80831B0E70127A74047F0C7
:1013E00000470BF180060BF1900856F8040F10B17E
:1013F00043681F4204D1B045F7D1DBF800205DE718
:1014000003680F4A5B689342F5D000222146984753
:10141000F1E70023224604A9B847B5E7E2B204A9E0
:101420005846FFF7E9FDDBF8002018E74FF0FF32E0
:1014300004A9B847A8E700BF6D0A00000000FC1F20
:10144000710A00000148FFF7FBBE00BFA892FF1F12
:10145000704700BF014B1B681B6A7047A892FF1FB3
:10146000704700BF704700BF704700BF00210148B0
:10147000FFF74EBBA892FF1F01B441EA000313F02F
:1014800003036FD1403A41D351F8043B40F8043B89
:1014900051F8043B40F8043B51F8043B40F8043B4E
:1014A00051F8043B40F8043B51F8043B40F8043B3E
:1014B00051F8043B40F8043B51F8043B40F8043B2E
:1014C00051F8043B40F8043B51F8043B40F8043B1E
:1014D00051F8043B40F8043B51F8043B40F8043B0E
:1014E00051F8043B40F8043B51F8043B40F8043BFE
:1014F00051F8043B40F8043B51F8043B40F8043BEE
:1015000051F8043B40F8043B403ABDD2303211D38D
:1015100051F8043B40F8043B51F8043B40F8043BCD
:1015200051F8043B40F8043B51F8043B40F8043BBD
:10153000103AEDD20C3205D351F8043B40F8043B8D
:10154000043AF9D204320AD0D2071CBF11F8013B89
:1015500000F8013B03D30B7803704B78437001BC58
:10156000704700BF0C2A4AD310F0030311D0C3F117
:101570000403D21ADB071CBF11F8013B00F8013B42
:1015800007D311F8013B00F8013B11F8013B00F8CB
:10159000013B11F003033FF475AF30B4043AC91AAC
:1015A000C3F1040C51F8044B022B19D0032B0BD0C0
:1015B000240A51F8043B1D0644EA050440F8044B94
:1015C0001C46043AF4D216E0240E51F8043B1D02E6
:1015D00044EA050440F8044B1C46043AF4D20AE0FD
:1015E000240C51F8043B1D0444EA050440F8044B64
:1015F0001C46043AF4D20432B1EB0C0130BC043A7C
:10160000A0D3013A11F8013B00F8013BF9D20B7865
:1016100003704B7843708B78837001BC704700BFB8
:1016200008B5104C08E0236859050DD423681A0545
:101630000FD42368DB0411D423685803F3D500F0DA
:10164000C1F923685905F1D500F00EF823681A0591
:10165000EFD500F009F82368DB04EDD500F004F8BD
:10166000EAE700BF3480044008B5FFF7D9FF00BFA8
:10167000014B10221A80704700200540704700BFC0
:10168000094908B50B6830B16A461844A2F5805282
:10169000904202D20860184608BD02F027F80C23D9
:1016A00003604FF0FF3008BD6C87FF1F30B4054B5F
:1016B000054D064C002210211A602A602060196036
:1016C00030BC704714D0034004D0034000D0034026
:1016D000704700BF2DE9F843054672B6204F214BF5
:1016E000214A1B683C68126862B6520102D5322B4F
:1016F00088BF013495B3C3F5BB331C4EDFF864904B
:10170000DFF86480FF334FF47A72A6FB031302FB09
:1017100004F404EB931472B6D9F800103A68D8F8C0
:1017200000E062B6C1F5BB33FF33A6FB03031EF036
:10173000806FC4EB93134FF47A7002D0322988BFC4
:10174000013200FB0233B3F57A7F04D3013D05D0AB
:1017500004F57A74DFE701F085F8DCE7BDE8F8838B
:101760004C94FF1F18E000E004ED00E0ABAAAAAA29
:10177000F8B52E4B2E49DFF8D4E0DFF8D4C02D4E5B
:101780002D4D2E4C2E4A2F4F4FF4000018604FF075
:10179000807018604FF0007018604FF08060186023
:1017A0004FF0006018600020086028234BF6FF719E
:1017B000CCF80010CEF80030336013602B6023604B
:1017C0003B60B3629362092245F8242CC4F8D80F19
:1017D00005F57F65C7F8D41F07F5FF2707F5FA67FA
:1017E000C6F8F83F2B6006F5FF26C4F8D42F05F5A0
:1017F000FD2504F5FF24386006F2F47612483160C6
:1018000005F5FF6504F5FD642B602360026001F0BF
:101810009FF8FFF75DFF1420FFF75CFF00F00CFD61
:101820004FF48C70BDE8F840FFF754BF08E100E0CA
:101830000480034014800340248003402C80034034
:101840001C8003403480034000800B400C80034028
:1018500008800340431E032B14D872B60A4951F87E
:10186000230068B170B4094C058834F81320466829
:1018700041F82360521B24F8132062B670BC7047F5
:1018800062B6704700207047A894FF1FA495FF1F01
:10189000013803280BD872B6074B53F8203043B1F8
:1018A00000205B680130002BFBD162B6704700203E
:1018B00070471846F9E700BFFC94FF1FF0B472B6FA
:1018C0001A491B4E012311F8014B194F9A002407A6
:1018D00042F0010505D556F8324064B156F835207E
:1018E000BAB10133052BEED162B6124B00221A7049
:1018F000F0BC00F01BBD0F4C0F4D217807EB4313DC
:10190000083001395860217047F8325062B6F0BC97
:101910007047084A0949137807EBC5040830013BB2
:101920006060137047F8351062B6F0E79C770000EE
:101930000080FF1F2595FF1F88004000C800400061
:10194000431E032B1DD81B4A400140F0100030B449
:10195000104472B6184CE25C032A1BD8DFE802F090
:101960000212151703220D88E25410F0080F14BF5D
:10197000C823882343EA054308314160036062B607
:1019800030BC704708300222EDE70522EBE7083053
:101990000422E8E7094A52F8230038B1084A52F80D
:1019A0002300416042F8231062B6E9E742F82310B1
:1019B000034AF7E70080FF1F3495FF1FFC94FF1FC9
:1019C0000C95FF1F2DE9F04FDFF814B3DFF814A3D7
:1019D00087B044E0AD4F4FEA930807EBC809013EDA
:1019E000D9F8042003F00803F6B2A2F1080003F0CE
:1019F000FF04002B40F0038157F838301B0C99B2DC
:101A000022F8081C002B00F0F180A14B22F8064CB4
:101A100042F8044C53F82620002A00F06C819D4DBA
:101A200055F8263058609C4C45F8260034F816309E
:101A3000194424F8161000F059FC002800F05481D5
:101A4000964A974B19F0080F00F1080018BF13468B
:101A5000C9F8040047F8383008238BF800309BF8A9
:101A60000040E4B260071BD58E4B1B78ABB18E49AA
:101A70000A7802F0FF032AB1013BDBB20B70002BA6
:101A800000F0B58389490A7802F0FF032AB1013BCF
:101A9000DBB20B70002B00F0F68004238BF80030D3
:101AA00004F0080303F0FF02002B00F0D5809AF841
:101AB0000030DBB21E098DD19C08744F57F83420DA
:101AC00007EBC401C2F38302013A49680C2A7ED8AD
:101AD000DFE802F081817D7D7D7D7D7D427D7D7DA4
:101AE00007000868724B734D01936C4B4A68724E45
:101AF00047F8343081B240F281646D4B6A602860EF
:101B000000220120A1423A611A60BA61307000F2ED
:101B1000F680B1F5D06F80F0E882B1F5817F00F0FA
:101B2000D38200F2D881802900F04D81822940F0D3
:101B30009282A988614B01F07F01042900F28C8216
:101B40005F4C89000B44227062701A78930740F151
:101B50003883207002203AE1554B01931A6862B332
:101B6000584B5949544E18880C7896F800E0402894
:101B7000054684F0010C28BF402544F00204BEF164
:101B8000000F81F800C0A0EB050007EBC40C0CBFF0
:101B90008821C82180B28EF0010E41EA0541CCF8BF
:101BA0000420188086F800E02A4447F8341010B961
:101BB000402D18BF0022019B1A603E4B1A88B2F5D7
:101BC000A06F04D100219A785970404B1A70404A96
:101BD0000123137040E7374A158842F221008542FD
:101BE00000F052812D4A47F83420F0E72B4A2C4B65
:101BF00019F0080F18BF134647F838302CE700F0EB
:101C000095FB344A344952F82630002B00F02D81E0
:101C100058688C5D42F8260003F10802C9F80420D8
:101C2000032C05D8DFE804F0120F150204228A55B0
:101C30001A8819F0080F0CBF8823C82343EA02430F
:101C400047F8383008E702228A55F1E703228A551F
:101C5000EEE705228A55EBE7E00700F178812106DF
:101C600000F1A281A20706D51C4A1D491378022063
:101C7000DBB213700870E30602D5194B10221A70FC
:101C800007B0BDE8F08F00F0BDFC06E70080FF1F45
:101C9000A894FF1F5494FF1FA495FF1FC800400085
:101CA000880040003095FF1FB994FF1F3895FF1F33
:101CB0005094FF1F1C95FF1FB894FF1FC0200740C2
:101CC0002895FF1F6494FF1F2495FF1F982007404D
:101CD00094200740FC94FF1F3495FF1F8820074085
:101CE0008020074090200740B74A47F83800137813
:101CF00001331370B0E643F82600B44D93E642F288
:101D00002104A14200F0AD8000F20E81B1F5086F10
:101D100000F05481B1F5106F40F09D81AC4AA97874
:101D20001170AC4D042402E00134142C0CD057F88F
:101D300034301906F8D505EBC40301345868083867
:101D400000F0F4FA142CF2D1A349A44BA44A029156
:101D5000A449A54C9D4D039405964FF00009884673
:101D60001C4616460495206828B1456800F0DEFA46
:101D70002846002DF9D100232360049B30681A46C1
:101D8000002342F8293028B1456800F0CFFA2846F0
:101D9000002DF9D100223260029A98F800301146E5
:101DA000002241F8042B039A0291023B4FF00001FC
:101DB00022F81910032B00F2B481DFE813F0E201DE
:101DC000AE01E201AE01894C022022706270EA8805
:101DD000824280F00D8286490D78402A45F0020E3D
:101DE000944607EBCE0028BF4FF0400C04EB0C03E9
:101DF00044600293CCEB02004FEA0C484FF001091B
:101E00000022C82444EA080385F0010447F83E3064
:101E100032700C70DFF8BCE1764BDFF8D48100281B
:101E200040F02081BCF1400F1BD144F0020407EBCD
:101E3000C403029FDFF89CE15F60002A40F0278125
:101E4000020442F0880286F800900D7007444EF8B4
:101E500034203B46402804D10020674A0199108075
:101E60000B60664A01231370B1E68B5D032B00F211
:101E7000248101A252F823F0591A0000591A0000D7
:101E80009D1F0000A31F0000928862B95C4ACD1D0F
:101E900011F8013B02F8013F8D42F9D1594A12680D
:101EA000862A00F0C9805249524E0878327840F0B4
:101EB000020580F00100087007EBC501002A4FF011
:101EC0000000486082F001020CBF8821C82147F859
:101ED0003510327086E640F20232914240F0B08016
:101EE000A98801F07F01042900F2B5806A88002AE0
:101EF00040F0B180444C89000C448146217841F087
:101F00000201217000200290804684460446384930
:101F10000D7845F0020E07EBCE03B9F1000F5C60BF
:101F20000CBF8824C8246DE742F22124A14240F06E
:101F30008E80A988002940F04281344B344A354CC8
:101F40001B68AD78136081460A462570DAE72B4995
:101F5000204B3148264EDFF8B0C0304DDFF8D4E0DA
:101F60002F4F02240C702F4C18605C6098602E4834
:101F7000D8601A619A610D2332702C4C8CF80030B5
:101F80002B4EFF232B7001209F258EF800303A70D6
:101F900033702570087007B0BDE8F08F00238B55B3
:101FA0005AE501238B5557E51749224B80220D2016
:101FB00008701A70A2077FF55EAE55E6044A0B4C16
:101FC0001278227003E700BF2595FF1F5494FF1F6E
:101FD0003095FF1F0080FF1F0C95FF1FA894FF1F67
:101FE000FC94FF1F3495FF1FA495FF1F2895FF1F2A
:101FF0002495FF1FB894FF1F6494FF1F942007408F
:10200000AB95FF1FAC95FF1FC02007404C94FF1FEE
:10201000B495FF1F4895FF1F8800400088200740A7
:10202000982007406894FF1FBC94FF1F842007403E
:102030008C20074080200740754A0F21117032E73D
:10204000B1F5A06F07D100224FF001095AE742F223
:1020500021329142F7D06F4B0F221A706E4A012342
:102060001370B4E540287FF6E0AE44F002040EEBB6
:10207000C401029E4E60AAB183F80090674A88F8B6
:1020800000503346403840334EF83420E5E6029B9A
:1020900086F80090020442F0C8020D7003444EF826
:1020A0003420D7E683F80090029B5D4A88F8005000
:1020B000403840334EF83420CFE619F0080F0CBFFB
:1020C000022303238B55C7E4A98801F07F0104296B
:1020D000C1D86A88002ABED14E4C89000C44814682
:1020E000217821F0020121700CE74E4A5468002C3F
:1020F000B1D06888B5F804E003E00C325468002CD5
:10210000A9D013888342F8D153887345F5D1000ACA
:1021100003280CBF2078108959E64FF0010388F896
:10212000003009F10109B9F1040F04F1040406F1CA
:10213000040608F101087FF416AE3B4B059E3B4DAB
:10214000DFF8F080002018704FF0010918F8013B0B
:1021500005F8043B1A0719D44FEA890444F0020237
:1021600044F00304002347F8323047F83430304B52
:102170009D4209F10109E9D196F8009089F0010228
:10218000C0E64FF0000388F80030CAE700F0AEF870
:1021900018B307EB49134FEA890408305860204B05
:1021A00047F8343000F0A2F868B144F0010307EBBF
:1021B000C30208305060194A47F83320CEE7814601
:1021C000A0E6022003E6184B44F001021B7847F812
:1021D0003200154A01331370C0E7134B124A1B78C3
:1021E0004FEA8904013347F834001370DAE700BE80
:1021F0004028844628BF4FF0400C04EB0C03CCEB86
:1022000000004FEA0C48029300224FF001097EE6DD
:10221000B994FF1FC020074094200740C800400029
:1022200088004000A07700002595FF1FC4200740CC
:10223000D42007409C7700002DE9F04100F01EFCFF
:1022400000231F491A4601EBC30041F83320013334
:10225000142B42604FF000041948F4D1194A1A4F68
:1022600013681A491A4D1B4EDFF874C0DFF874E08A
:10227000DFF8748043F480231360C0F307233B70BE
:10228000C0F307430B70000EFF2302F528322870BD
:10229000D4328CF80030104D8EF800300F48337077
:1022A000012388F80030702681F850404FF4007404
:1022B000102107F8183C2E7004601170BDE8F08101
:1022C0000080FF1F348004409C200740B02007405E
:1022D000B42007401020074049E400E008E100E096
:1022E00080200740882007409420074072B60D48A0
:1022F0000268B2FA82F30B2B10DC4FF00041D94098
:1023000022EA0102026062B6074803EBC303DB0066
:10231000C2180021C15010465160704762B60020BB
:10232000704700BF7087FF1FBC83FF1F0D4B0E4A15
:10233000C31AA2FB03231B090B2B0CD80B4A1278E0
:1023400052B972B60A484FF00041026821FA03F30D
:102350001A43026062B67047064A1278002AF0D02B
:10236000FFF7ACBABC83FF1F398EE3382595FF1FFA
:102370007087FF1F3095FF1F38B50F4D286878B163
:1023800043880288C118013393420C7A02D24380F9
:10239000204638BDFFF7CAFF002320462B6038BD1A
:1023A000064B1B782BB10320FFF754FA2860002856
:1023B000E6D14FF0FF3038BD4495FF1F3095FF1F29
:1023C00010B5094C206818B143881844007A10BD34
:1023D000064B1B782BB10320FFF73CFA2060002846
:1023E000F2D14FF0FF3010BD4495FF1F3095FF1F15
:1023F000044B054A1B6890881BB11A885B88D31A66
:10240000184470474495FF1FA495FF1F0B4B1B7882
:102410009BB110B50A4C206848B1FFF787FF002335
:1024200003202360FFF716FA30B1FFF77FFF032088
:10243000FFF710FA0028F8D110BD70473095FF1F44
:102440004495FF1F2DE9F04FDFF8F89083B001228B
:1024500089F80020019169B3DFF8EC80364F019EC6
:102460008346D8F80000B0B3344D4488C4F140012D
:10247000B14228BF314604EB010E00221FFA8EFE46
:102480002A70761AA0F802E000F1080251B1013C6E
:10249000224459441BF8014B02F8014F8B45F9D1F6
:1024A000B0F802E0BEF13F0F0BD8254A05211170AC
:1024B000002ED6D10198002389F8003003B0BDE882
:1024C000F08F4022028001460420FFF739FA0022F3
:1024D000C8F80020E9E73A782AB3184D4AF2F924FF
:1024E0004FF0010A07E0013C16D02A78A2B900F0AB
:1024F000B9F93A78BAB10420FFF7CAF90728F2D837
:1025000089F800A0FFF7F2FEC8F800000028ACD15F
:102510000C4B013C1870E8D101234FF0FF302B70B9
:1025200003B0BDE8F08F00234FF0FF3089F8003092
:1025300003B0BDE8F08F00BF3095FF1F4095FF1F2F
:102540003895FF1F3995FF1F3C95FF1F00B583B0DD
:1025500002AB012103F8010D1846FFF773FF03B02A
:102560005DF804FB38B50E4D0E4C2868012323702E
:1025700028B1408800232370C0F1400038BD0A4BC9
:102580001B7813B90020207038BD0420FFF780F9B4
:102590000728F7D8FFF7AAFE28600028E9D1F1E75D
:1025A0003C95FF1F3995FF1F3095FF1FF8B5114B64
:1025B0001B788BB1104E114D346801272F7064B118
:1025C0000F4A638800271770214623800420FFF7F5
:1025D000B7F9376000232B70F8BDFFF787FE084B73
:1025E00028B1014604201C70FFF7AAF9F2E71F701A
:1025F000F0E700BF3095FF1F3C95FF1F3995FF1F87
:102600003895FF1F38B50E4B1B7873B90D4C2168F8
:1026100061B103F0FF054B880B800420FFF790F9B0
:10262000256038BD084B01221A7038BDFFF75EFEE9
:102630000028F7D00146BDE838400420FFF780B9F4
:102640003995FF1F3C95FF1F3895FF1F70B5EFF3BD
:10265000108272B60C4C206880B10C4E0025436984
:10266000236073B19D6102B962B64577836898476C
:10267000EFF3108272B620680028F0D102B962B67A
:1026800070BD3360EFE700BF4C95FF1F5095FF1FF3
:10269000FFF7DCBF024A136801331360704700BFC5
:1026A0004C94FF1F30B5044683B002252A4601A88A
:1026B0000549FEF7E1FE23682A4601A95B6820462A
:1026C000984703B030BD00BF70770000F0B50746F3
:1026D0008BB0002A33D0012A08BF0A2251B321242B
:1026E00000E0F4B2B1FBF2F502FB1511C8B2092902
:1026F00000F1300198BFC8B20AA988BF3730214421
:1027000088BFC0B201F8240C661E2946002DE8D10E
:1027100033B1013CE4B20AAB23442D2203F8242C4C
:102720003B6801AA11195B683846C4F12202984738
:102730000BB0F0BD30228DF825202124E8E7036896
:10274000C9B21B6898470BB0F0BD00BF0029BABFE3
:1027500049422D2300230A22FFF7B8BF70B50E4D62
:1027600082B02B680093009E044608E000F07AF8DF
:102770002B680193019BA2689B1B934207D223689D
:1027800020469B6998470028F0DB02B070BD4FF0EF
:10279000FF3002B070BD00BF4C94FF1F10B504465F
:1027A00006E02D2B0CD0092A0AD923685B699847CB
:1027B0002046FFF7D3FF031EA3F130022046F0DAD4
:1027C000184610BDF8B50D460446FFF7E7FF002890
:1027D00023DB00263746A842A0F1300209D02D287D
:1027E00017D006EB8603092A00EB430001D8A0F1BD
:1027F0003006236820465B6998472046FFF7AEFF06
:10280000A0F13003092BE6D9A842E4D01FB17042F1
:10281000F8BD0127EDE73046F8BD0020F8BD00BF48
:102820000121FFF7CFBF00BF08B5FDF71FFEFEF780
:1028300091F800F017F8FAE700F086BFFFF7E6BD61
:10284000FFF7BEBDFFF798BDFFF7D2BDFFF7AEBEE5
:10285000FFF788BE08461146FFF7F4BD0846FFF7AC
:1028600075BE00BF2DE9F843314E337893B1314F37
:102870003A787AB90122D9073A7036D49A0719D42E
:1028800000225B073A7005D52B4B1A6812B1EFF3A3
:1028900005820AB1BDE8F883EFF3108172B61868BB
:1028A00018B1264C2278002A2ED00029F2D162B627
:1028B000BDE8F883DFF8908098F80020002ADFD088
:1028C000DFF88890002405E0013498F80030E4B285
:1028D000A34212D959F824502B6828461B699847FF
:1028E0000028F1D02B699847EEE7FFF781FDC8B9C2
:1028F000134B1B781BB93378C0E73378C0E73378C4
:1029000003F0FE033370B9E745691D6001232370AE
:102910005DB1AA6101B962B6002545778368984721
:102920002570B7E700F0ECF8E2E7064B1D60F1E731
:102930008487FF1F5D95FF1F5895FF1F5C95FF1F44
:102940002A88FF1F5495FF1F6C95FF1F6095FF1F7E
:1029500030B42948294A2A4B2A4D6024E1210470C9
:1029600011701B78284C082B30D00A2B2748284997
:1029700037D00C2B0CBF35223D2212232A60236056
:1029800002600B60234B24491B78244ABBB101230E
:102990000B601360224B23491B78234A012B26D955
:1029A000042B0FD9082B1ED9102B94BF8623872305
:1029B0000B6013601D4B01221A7030BC70470B6016
:1029C0001360E7E784230B601360F3E700F58E20C4
:1029D0000F490830012213232A60236002600B6034
:1029E000D0E73922F7E785230B601360E2E7802305
:1029F0000B601360DEE700BF004007400140074066
:102A00008587FF1F08B003400CB0034008B00B409F
:102A10000CB00B405F95FF1F20B0034020B00B406F
:102A20008687FF1F24B0034024B00B405E95FF1F34
:102A3000F0B44D1E2E46002400E00134B0FBF2F34A
:102A400002FB1300092800F130078ABF3730F8B2C3
:102A5000C0B206F8010F1846002BEED10A195370C8
:102A60004CB1107815F8016F28700133E01A8342D9
:102A700002F80169F5DB0846F0BC704770B584B018
:102A800072B6194B194D1A48702241260F24802125
:102A90001A702E701A460470197013781B06FCD534
:102AA000144B186862B6144B144C984298BF00EB54
:102AB000800001A998BF40000A22FFF7B9FF01A9D1
:102AC0002046002311F8012B01333AB10A2B20F8DC
:102AD000022FF7D11623237004B070BD5B00DBB268
:102AE000237004B070BD00BF000002400700024028
:102AF00006000240080002407F9698001488FF1FDD
:102B0000704700BF81F0004102E000BF83F0004346
:102B100030B54FEA41044FEA430594EA050F08BF78
:102B200090EA020F1FBF54EA000C55EA020C7FEA3C
:102B3000645C7FEA655C00F0E2804FEA5454D4EBB9
:102B40005555B8BF6D420CDD2C4480EA020281EA83
:102B5000030382EA000083EA010180EA020281EABB
:102B60000303362D88BF30BD11F0004F4FEA01310D
:102B70004FF4801C4CEA113102D0404261EB41011C
:102B800013F0004F4FEA03334CEA133302D05242A2
:102B900063EB430394EA050F00F0A780A4F101045E
:102BA000D5F1200E0DDB02FA0EFC22FA05F2801898
:102BB00041F1000103FA0EF2801843FA05F359417E
:102BC0000EE0A5F120050EF1200E012A03FA0EFCFD
:102BD00028BF4CF0020C43FA05F3C01851EBE37127
:102BE00001F0004507D54FF0000EDCF1000C7EEB44
:102BF00000006EEB0101B1F5801F1BD3B1F5001F82
:102C00000CD349085FEA30004FEA3C0C04F10104A0
:102C10004FEA445212F5800F80F09A80BCF1004FC9
:102C200008BF5FEA500C50F1000041EB045141EA4B
:102C3000050130BD5FEA4C0C404141EB010111F44C
:102C4000801FA4F10104E9D191F0000F04BF0146F7
:102C50000020B1FA81F308BF2033A3F10B03B3F1D5
:102C600020020CDA0C3208DD02F1140CC2F10C0265
:102C700001FA0CF021FA02F10CE002F11402D8BFC3
:102C8000C2F1200C01FA02F120FA0CFCDCBF41EA8F
:102C90000C019040E41AA2BF01EB0451294330BD5E
:102CA0006FEA04041F3C1CDA0C340EDC04F114043B
:102CB000C4F1200220FA04F001FA02F340EA030012
:102CC00021FA04F345EA030130BDC4F10C04C4F158
:102CD000200220FA02F001FA04F340EA0300294638
:102CE00030BD21FA04F0294630BD94F0000F83F482
:102CF000801306BF81F480110134013D4EE77FEA65
:102D0000645C18BF7FEA655C29D094EA050F08BFB0
:102D100090EA020F05D054EA000C04BF1946104691
:102D200030BD91EA030F1EBF0021002030BD5FEAD5
:102D3000545C05D14000494128BF41F0004130BDFD
:102D400014F580043CBF01F5801130BD01F0004551
:102D500045F0FE4141F470014FF0000030BD7FEAC4
:102D6000645C1ABF194610467FEA655C1CBF0B46BF
:102D7000024650EA013406BF52EA033591EA030FD6
:102D800041F4002130BD00BF90F0000F04BF0021CE
:102D9000704730B54FF4806404F132044FF0000501
:102DA0004FF0000150E700BF90F0000F04BF00217A
:102DB000704730B54FF4806404F1320410F00045E0
:102DC00048BF40424FF000013EE700BF42004FEADB
:102DD000E2014FEA31014FEA02701FBF12F07F4358
:102DE00093F07F4F81F06051704792F0000F14BF55
:102DF00093F07F4F704730B54FF4607401F0004599
:102E000021F0004120E700BF50EA010208BF7047EF
:102E100030B54FF000050AE050EA010208BF7047E4
:102E200030B511F0004502D5404261EB41014FF44D
:102E3000806404F132045FEA915C3FF4DCAE4FF051
:102E400003025FEADC0C18BF03325FEADC0C18BF38
:102E5000033202EBDC02C2F1200300FA03FC20FA89
:102E600002F001FA03FE40EA0E0021FA02F11444D6
:102E7000C1E600BF70B54FF0FF0C4CF4E06C1CEAEB
:102E800011541DBF1CEA135594EA0C0F95EA0C0F60
:102E900000F0DEF82C4481EA030621EA4C5123EAD3
:102EA0004C5350EA013518BF52EA033541F4801102
:102EB00043F4801338D0A0FB02CE4FF00005E1FBB5
:102EC00002E506F00042E0FB03E54FF00006E1FBFF
:102ED00003569CF0000F18BF4EF0010EA4F1FF0442
:102EE000B6F5007F64F5407404D25FEA4E0E6D4182
:102EF00046EB060642EAC62141EA55514FEAC52093
:102F000040EA5E504FEACE2EB4F1FD0C88BFBCF50E
:102F1000E06F1ED8BEF1004F08BF5FEA500E50F1BF
:102F2000000041EB045170BD06F0004646EA010185
:102F300040EA020081EA0301B4EB5C04C2BFD4EBB7
:102F40000C0541EA045170BD41F480114FF0000EB0
:102F5000013C00F3AB8014F1360FDEBF002001F01E
:102F6000004170BDC4F10004203C35DA0C341BDC98
:102F700004F11404C4F1200500FA05F320FA04F06A
:102F800001FA05F240EA020001F0004221F000419E
:102F900010EBD37021FA04F642EB06015EEA430E11
:102FA00008BF20EAD37070BDC4F10C04C4F1200541
:102FB00000FA04F320FA05F001FA04F240EA0200F4
:102FC00001F0004110EBD37041F100015EEA430EC5
:102FD00008BF20EAD37070BDC4F1200500FA05F2E5
:102FE0004EEA020E20FA04F301FA05F243EA020364
:102FF00021FA04F001F0004121FA04F220EA020073
:1030000000EBD3705EEA430E08BF20EAD37070BDB8
:1030100094F0000F0FD101F00046400041EB010198
:1030200011F4801F08BF013CF7D041EA060195F07A
:10303000000F18BF704703F00046520043EB030334
:1030400013F4801F08BF013DF7D043EA0603704721
:1030500094EA0C0F0CEA135518BF95EA0C0F0CD02C
:1030600050EA410618BF52EA4306D1D181EA030172
:1030700001F000414FF0000070BD50EA410606BF6C
:103080001046194652EA430619D094EA0C0F02D1B1
:1030900050EA013613D195EA0C0F05D152EA0336F6
:1030A0001CBF104619460AD181EA030101F0004114
:1030B00041F0FE4141F470014FF0000070BD41F05D
:1030C000FE4141F4780170BD70B54FF0FF0C4CF437
:1030D000E06C1CEA11541DBF1CEA135594EA0C0F56
:1030E00095EA0C0F00F0A7F8A4EB050481EA030EA3
:1030F00052EA03354FEA013100F088804FEA03338A
:103100004FF0805545EA131343EA12634FEA022257
:1031100045EA111545EA10654FEA00260EF0004118
:103120009D4208BF964244F1FD0404F5407402D26A
:103130005B084FEA3202B61A65EB03055B084FEAFB
:1031400032024FF480104FF4002CB6EB020E75EBF8
:10315000030E22BFB61A754640EA0C005B084FEA20
:103160003202B6EB020E75EB030E22BFB61A75469D
:1031700040EA5C005B084FEA3202B6EB020E75EBE8
:10318000030E22BFB61A754640EA9C005B084FEA60
:103190003202B6EB020E75EB030E22BFB61A75466D
:1031A00040EADC0055EA060E18D04FEA051545EA5C
:1031B00016754FEA06164FEAC30343EA52734FEA05
:1031C000C2025FEA1C1CC0D111F4801F0BD141EA7E
:1031D00000014FF000004FF0004CB6E711F4801FE3
:1031E00004BF01430020B4F1FD0C88BFBCF5E06FC3
:1031F0003FF6AFAEB5EB030C04BFB6EB020C5FEAD3
:10320000500C50F1000041EB045170BD0EF0004E27
:103210004EEA113114EB5C04C2BFD4EB0C0541EA59
:10322000045170BD41F480114FF0000E013C90E656
:1032300045EA060E8DE60CEA135594EA0C0F08BF1A
:1032400095EA0C0F3FF43BAF94EA0C0F0AD150EA19
:1032500001347FF434AF95EA0C0F7FF425AF1046AC
:1032600019462CE795EA0C0F06D152EA03353FF4D4
:10327000FDAE1046194622E750EA410618BF52EA51
:1032800043067FF4C5AE50EA41047FF40DAF52EA25
:1032900043057FF4EBAE12E74FF0FF3C06E000BFC2
:1032A0004FF0010C02E000BF4FF0010C4DF804CDCF
:1032B0004FEA410C7FEA6C5C4FEA430C18BF7FEA8F
:1032C0006C5C1BD001B050EA410C0CBF52EA430CBD
:1032D00091EA030F02BF90EA020F0020704710F13D
:1032E000000F91EA030F58BF994208BF90422CBFCC
:1032F000D8176FEAE37040F0010070474FEA410CC5
:103300007FEA6C5C02D150EA013C07D14FEA430CE2
:103310007FEA6C5CD6D152EA033CD3D05DF8040B53
:10332000704700BF8446104662468C461946634685
:1033300000E000BF01B5FFF7B7FF002848BF10F15C
:10334000000F01BD4DF808EDFFF7F4FF0CBF0120A1
:1033500000205DF808FB00BF4DF808EDFFF7EAFF1D
:1033600034BF012000205DF808FB00BF4DF808EDD8
:10337000FFF7E0FF94BF012000205DF808FB00BFCD
:103380004DF808EDFFF7CEFF94BF012000205DF857
:1033900008FB00BF4DF808EDFFF7C4FF34BF012064
:1033A00000205DF808FB00BF4FEA410C7FEA6C5C2F
:1033B00002D150EA013C0AD14FEA430C7FEA6C5C2F
:1033C00002D152EA033C02D14FF0000070474FF0A7
:1033D0000100704753B94AB9002908BF00281CBF33
:1033E0004FF0FF314FF0FF3000F07EB9ADF1080C27
:1033F0006DE904CE00F006F8DDF804E0DDE9022313
:1034000004B070472DE9F0478C460E460446089DEF
:10341000002B50D18A4217466CD9B2FA82FEBEF117
:10342000000F0BD0CEF1200420FA04F401FA0EF6BE
:1034300044EA060C02FA0EF700FA0EF44FEA1749B6
:10344000220CBCFBF9F01FFA87F809FB10C642EA10
:10345000064600FB08F3B34209D9F61900F1FF3222
:1034600080F02281B34240F21F8102383E44F61AB6
:10347000A2B2B6FBF9F309FB136642EA064403FB6A
:1034800008F8A04509D9E41903F1FF3280F00A8158
:10349000A04540F20781023B3C44C8EB040443EAE8
:1034A00000400021002D62D024FA0EF400232C608D
:1034B0006B60BDE8F0878B4207D9002D55D0002105
:1034C00085E841000846BDE8F087B3FA83F100299A
:1034D00040F09080B34202D3824200F2F880841A16
:1034E00066EB03060120B446002D40D085E810109D
:1034F000BDE8F08712B90127B7FBF2F7B7FA87FEEC
:10350000BEF1000F35D1F31B4FEA17481FFA87FCB5
:103510000121B3FBF8F0220C08FB103642EA064604
:103520000CFB00F3B34207D9F61900F1FF3202D2C7
:10353000B34200F2CE801046F61AA2B2B6FBF8F300
:1035400008FB136642EA06440CFB03FCA44507D9BA
:10355000E41903F1FF3202D2A44500F2B58013460C
:10356000CCEB040443EA00409CE729462846BDE82A
:10357000F087CEF1200106FA0EF307FA0EF720FAD3
:1035800001F94FEA1748CE4049EA0309B6FBF8FAB9
:103590004FEA194408FB1A661FFA87FC44EA0643FF
:1035A0000AFB0CF29A4200FA0EF40AD9DB190AF16E
:1035B000FF3180F087809A4240F28480AAF1020AAB
:1035C0003B449B1A1FFA89F9B3FBF8F108FB11334E
:1035D00049EA034301FB0CF69E4207D9DB1901F1CE
:1035E000FF326BD29E4269D902393B449B1B41EAB0
:1035F0000A418EE7C1F1200E22FA0EF48B402343DC
:1036000020FA0EF706FA01F44FEA134C26FA0EF6EA
:103610003C43B6FBFCF9270C0CFB19661FFA83F838
:1036200047EA064609FB08F7B74202FA01F200FA38
:1036300001FA08D9F61809F1FF3041D2B7423FD953
:10364000A9F102091E44F61BA0B2B6FBFCF40CFB68
:10365000146640EA064704FB08F8B84507D9FF1886
:1036600004F1FF3028D2B84526D9023C1F4444EA71
:103670000940C8EB0707A0FB02894F4544464E4668
:1036800014D329D065B3BAEB040367EB060707FA36
:103690000EFECB40CF404EEA030385E888000021B0
:1036A000BDE8F0871346F8E61046E0E6B8EB020402
:1036B00069EB03060138E5E70446D8E7114695E7CC
:1036C0008146C0E78A467CE7023B3C4448E708461F
:1036D0000AE702383E442FE7C245E7D33E46D1E72A
:1036E0002946BDE8F08700BF704700BF014B18684E
:1036F000704700BF588CFF1F70B50F4E0F4D761BE3
:10370000B61018BF002405D0013455F8043B984783
:10371000A642F9D10A4E0B4D761B04F0B1F9B61052
:1037200018BF002406D0013455F8043B9847A64240
:10373000F9D170BD70BD00BF8C7A00008C7A00009A
:10374000987A00008C7A0000024B0146186800F05D
:1037500003B800BF588CFF1F2DE9F04F01F10B0596
:10376000162D83B0064640F29F8035F0070500F124
:10377000BF80A94200F2BC8000F06EFBB5F5FC7F73
:10378000C0F09C826B0A00F0BA80042B00F28381A7
:10379000A80900F1390E4FEA4E033830C44F07EB49
:1037A0008303A3F108015C68A14207D1ACE0002AC1
:1037B00080F2AC80E468A14200F0A680636823F048
:1037C00003035A1B0F2AF2DDB9493C6901F1080EC7
:1037D000744500F0B381636823F003035A1B0F2A7A
:1037E00000F39981002AC1F814E0C1F810E080F2DA
:1037F0009E80B3F5007F80F06781DB0803F1010C48
:1038000001229B1002FA03F34A6851F83C80C4F885
:10381000088001EBCC091A43A9F10803E3604A6070
:1038200041F83C40C8F80C40831001249C4094426D
:1038300000F28A80144206D120F003006400144292
:1038400000F10400FAD007EBC009CC468046DCF852
:103850000C108C4507D173E1002A80F28181C96880
:103860008C4500F06D814B6823F003035A1B0F2A2F
:10387000F2DD0C46D1F80CC054F8088F4B1945F016
:1038800001054D6042F00101C8F80CC03046CCF88B
:1038900008807B613B61C3F80CE0C3F808E0596025
:1038A0009A5000F0DBFA1FE0102921D800F0D4FA7A
:1038B0001025062302207E4F07EB8303A3F10802A5
:1038C0005C68944200F045816368E168A56823F074
:1038D0000303234430465A68E96042F001028D60D8
:1038E0005A6000F0BBFA0834204603B0BDE8F08F00
:1038F00000240C232046336003B0BDE8F08F802302
:103900004FF0400E3F2049E770465DE72344E168F1
:103910005A68A56842F00102E96030468D605A603D
:1039200000F09CFA0834204603B0BDE8F08F234431
:1039300030465A6842F001025A6000F08FFA0834AB
:10394000204603B0BDE8F08FBC68636823F003082D
:10395000A84504D3C5EB08030F2B00F38C80554B0F
:10396000DFF860911A68D9F8003001332A4404EB7B
:10397000080A00F0608102F580520F3222F47F6263
:1039800022F00F0211463046019200F059FCB0F1CE
:10399000FF3F8346019A00F05881824500F2FC8087
:1039A000454B1968DA451144196000F05381D9F884
:1039B0000000DFF810E101301BBFCAEB0B0A5144D5
:1039C000CEF800B019601BF0070100F01781C1F1BB
:1039D0000800C1F58051834408315A44C2F30B02F8
:1039E000C2EB010949463046019300F029FC431C13
:1039F000019B00F03F81CBEB00024A4442F0010200
:103A00001968C7F808B04944BC42CBF804201960D3
:103A1000DFF8A49016D0B8F10F0F40F2FD80626875
:103A2000A8F10C0323F00703E01802F001024FF0A5
:103A3000050E1A430F2B6260C0F804E0C0F808E0DE
:103A400000F21C811D4BBC681A68914288BF196046
:103A50001B4B1A689142626888BF196022F003020A
:103A60009542A2EB050301D80F2B04DC304600F091
:103A7000F5F9002438E7621943F0010345F0010528
:103A800065603046BA60536000F0E8F908342046BB
:103A900003B0BDE8F08F142B71D9542B00F2A48031
:103AA000280B00F16F0E4FEA4E036E3076E600BF32
:103AB000C88DFF1F7895FF1F7C95FF1F7495FF1F12
:103AC0007095FF1FD491FF1F5A0A042A5ED9142A49
:103AD00000F2B38002F15C0149005B3207EB810C1C
:103AE00057F82110DFF8DC81ACF1080C8C4500F0B0
:103AF00088804A6822F00302934202D289688C458A
:103B0000F7D1D1F80CC07A68C4F80CC0A160CCF829
:103B10000840CC6088E6631942F0010745F00105D2
:103B2000656030464B610B61C3F80CE0C3F808E0F8
:103B30005F609A50083400F091F9D5E64A6873E660
:103B400008F1010818F0030F0CF1080C7FF47FAEA8
:103B500030E0DC68A34208BF02303FF435AEB3E684
:103B60000B440C465A68C96854F8085F42F00102D9
:103B70005A603046E9608D6000F070F9B4E603F1F8
:103B80005C0E03F15B004FEA4E0307E69A0902F16F
:103B9000390149003832A1E7BC424A4B3FF400AF3B
:103BA0009C68626822F003025AE759F8083999457F
:103BB00040F0828010F0030F00F1FF30F5D17B68F8
:103BC00023EA04037B6064009C423FF6BDAE002CF8
:103BD0003FF4BAAE1C4240467FF435AE64001C424E
:103BE00000F10400FAD02EE6B3F5AA7F18D8E80B4E
:103BF00000F1780E4FEA4E037730CFE54FF4805155
:103C0000EBE60121D8F80430921001FA02F21A43CF
:103C1000C8F80420614677E70123CBF8043025E794
:103C200040F25452934220D8A80C00F17D0E4FEA86
:103C30004E037C30B2E51032A4E6542A26D81A0B83
:103C400002F16F0149006E3248E7BC68626822F0F9
:103C5000030205E7CAF30B0000287FF4A8AE424434
:103C6000BB6842F001025A60ECE6FE234FF07F0E83
:103C70007E2093E501224FF00009C1E604F108011E
:103C8000304602F023FFD9F80010DBE6B2F5AA7F38
:103C900005D8DA0B02F17801490077321EE740F2CD
:103CA00054518A4205D89A0C02F17D0149007C32B8
:103CB00014E7FE217E2211E77B6884E7E808431CB5
:103CC0005B00F8E5C88DFF1F82B049B15AB16BB1F6
:103CD00013780B601278101C18BF012002B07047D7
:103CE00001A9002AF3D1104602B070476FF001001D
:103CF000F4E700BF8842F0B50DD98B1898420AD27C
:103D00008118002A51D09A1A13F8014D01F8014D7B
:103D10009342F9D1F0BD0F2A48D941EA00039B072D
:103D200046D100F1100401F11003154653F8106C50
:103D300044F8106C53F80C6C44F80C6C53F8086C95
:103D400044F8086C103D53F8046C44F8046C0F2DD3
:103D500003F1100304F11004E8D8A2F1100323F0DA
:103D60000F0302F00F0E1033BEF1030F194403448A
:103D700021D91E1F0D467446043C55F8047B46F8B5
:103D8000047F032CF8D8AEF1040424F003040434B7
:103D90002344214402F0030262B1013B0A4411F8BA
:103DA000014B03F8014F8A42F9D1F0BD0346F3E716
:103DB0000346F2E7F0BD7246EEE700BF70B4840739
:103DC00046D0541E002A41D0CDB2034602E0621E06
:103DD000E4B3144603F8015B9A07F8D1032C2ED9FB
:103DE000CDB245EA05250F2C45EA054519D903F161
:103DF00010022646103E0F2E42F8105C42F80C5C72
:103E000042F8085C42F8045C02F11002F2D8A4F116
:103E1000100222F00F0204F00F041032032C13449E
:103E20000DD91E462246043A032A46F8045BFAD806
:103E3000221F22F003020432134404F003042CB1C5
:103E4000C9B21C4403F8011BA342FBD170BC7047EC
:103E500014460346C2E700BF704700BF704700BF6B
:103E60002DE9F04F174683B0002900F0C1800E46BF
:103E7000814607F10B05FFF7EFFF56F804EC162D0E
:103E80002EF00304A6F1080840D810221546AF42D0
:103E900041D8944275DAC94B996808EB040088420E
:103EA000416800F0D98021F0010303445B68DB071F
:103EB0007DD51EF0010F35D039464846FFF74CFC42
:103EC0000746E0B156F8043C23F001034344A0F157
:103ED00008029A4200F04481221F242A00F2318114
:103EE000132A00F2048103463246116819605168B2
:103EF000596092689A603146484602F0E7FD4846AC
:103F0000FFF7ACFF384603B0BDE8F08F25F007059A
:103F1000002D2A46BBDA0C230020C9F8003003B07C
:103F2000BDE8F08F56F8083CC3EB080ADAF8043015
:103F300023F0030C04EB0C039342BDDB5746DAF885
:103F40000C1057F8080F221F242AC160886000F265
:103F50001781132A40F212813168CAF8081071687B
:103F6000CAF80C101B2A00F22B8108360AF1100245
:103F70003168116071685160B16891603E461C46BD
:103F8000D046631B0F2B1DD8D8F8043003F0010373
:103F900023434444C8F80430636843F0010363607A
:103FA0004846FFF75BFF304603B0BDE8F08F21F0D5
:103FB00003012144914221DBC36882680C46D3602F
:103FC0009A60DEE7D8F8042008EB050102F0010250
:103FD000154343F001020B44C8F804504A605A6884
:103FE00042F0010208315A60484602F06FFDD7E7FF
:103FF000114603B0BDE8F04FFFF7AEBB1EF0010F56
:104000007FF45AAF56F8083CC3EB080ADAF80430DC
:1040100023F0030C01EB0C0E96458BDBC368826822
:104020005746D3609A6057F8081FDAF80C30CB6017
:10403000221F242A996000F29980132A62D93368DA
:10404000CAF808307368CAF80C301B2A00F2A08046
:1040500008360AF1100356E021F0030BA34405F1E2
:104060001000834559DA1EF0010F7FF425AF56F892
:10407000081CC1EB080ADAF8041021F0030CE34431
:1040800058453FF757AF5746DAF80C1057F8080F66
:10409000221F242AC160886000F2B480132A40F2F3
:1040A000A5803168CAF808107168CAF80C101B2A7C
:1040B00000F2AF8008360AF11002316811607168B1
:1040C0005160B16891600AEB0501C5EB0B0242F04B
:1040D000010299604A60DAF8043003F001031D43DD
:1040E0004846CAF80450FFF7B9FE38465CE7336823
:1040F0000360736843601B2A27D800F1080306F1A8
:104100000802F2E63B4632681A6072685A60B2688A
:104110009A603E467446D04633E708EB0501C5EB8E
:104120000B0B4BF0010299604A6056F8043C03F017
:1041300001031D43484646F8045CFFF78FFE3046F6
:1041400032E73146FFF7D6FDD5E6B3688360F36802
:10415000C360242A28D000F1100306F11002C4E63F
:1041600050F8043C23F003031C440AE73146384668
:104170007446D046FFF7BEFD3E4602E73A46F7E6F4
:10418000314638461C46D046FFF7B4FD3E46F8E6B9
:10419000B368CAF81030F368CAF81430242A1BD068
:1041A00010360AF11803AEE733690361736943619E
:1041B00006F1180200F1180397E600BFC88DFF1F33
:1041C000B168CAF81010F168CAF81410242A0FD088
:1041D00010360AF11802CBE63369CAF81830736951
:1041E000CAF81C3018360AF120038CE73A4664E717
:1041F0003269CAF818207269CAF81C2018360AF108
:104200002002B5E6314638460193FFF773FD019B66
:1042100059E7B168CAF81010F168CAF81410242AD6
:1042200003D010360AF1180247E73269CAF818209D
:104230007269CAF81C2018360AF120023DE700BF57
:1042400038B5074C0023054608462360FDF718FAE9
:10425000431C00D038BD2368002BFBD02B6038BD39
:10426000B895FF1F0EB4F0B59CB021AB0F4953F8C1
:10427000042B019305466FF00044086802954FF443
:1042800002774FF6FF7602A90695ADF814700494F4
:104290000794ADF8166000F081F8029B00221A70B6
:1042A0001CB0BDE8F04003B0704700BF588CFF1F42
:1042B000FFFFFFFFFFFFFFFFFFFFFFFFFFFFFFFF0E
:1042C00090F800F06DE9024520F007016FF0000C56
:1042D00010F0070491F820F040F049804FF00004FE
:1042E0006FF00700D1E9002391F840F000F10800D9
:1042F00082FA4CF2A4FA8CF283FA4CF3A2FA8CF311
:104300004BBBD1E9022382FA4CF200F10800A4FA77
:104310008CF283FA4CF3A2FA8CF3E3B9D1E90423CB
:1043200082FA4CF200F10800A4FA8CF283FA4CF302
:10433000A2FA8CF37BB9D1E9062301F1200182FABC
:104340004CF200F10800A4FA8CF283FA4CF3A2FAC2
:104350008CF3002BC6D0002A04BF04301A4612BAD0
:10436000B2FA82F2FDE8024500EBD2007047D1E9D3
:10437000002304F00305C4F100004FEAC50514F062
:10438000040F91F840F00CFA05F562EA05021CBF33
:1043900063EA050362464FF00004A9E72DE9F04FF8
:1043A000C1B00C46099115460E930A9002F076FCB6
:1043B000036817931846FFF783FFA38916901E061C
:1043C00003D52369002B01F01A8100231A461293AA
:1043D0002593249319930B93DFF864A4149230ABC4
:1043E000239399461592A84698F800304446EBB1BD
:1043F000252B02D11AE0252B03D014F8013F002B06
:10440000F9D1C8EB04058DB1249B259AC9F8008029
:1044100001332A44072BC9F804502592249300F352
:10442000A68009F108090B9B2B440B932378002BE2
:1044300000F0A68000231A468DF86F3019460C93C1
:1044400007934FF0FF3B637804F101085D4608F1E4
:104450000108A3F12000582800F22584DFE810F0BD
:104460008803230423049003230423042304230444
:10447000230423049703A50323045D00E20023041F
:10448000FE00050105010501050105010501050104
:104490000501050123042304230423042304230426
:1044A000230423042304230415018102230481022D
:1044B0002304230423042304C60223042304CD027B
:1044C00023042304230423042304F70223042304E2
:1044D00025032304230423042304230423042304A3
:1044E00023042304230466037903810281028102E9
:1044F0008103790323042304D1032304DB03A300F2
:104500006400EE032304F5032304AA032304230415
:10451000BC030C980E9340420C90079B43F004039D
:10452000079398F8003092E70E98AB460021046894
:104530008DF86F10071D0798302378228B458DF872
:1045400070304FF000058DF8712040F00203C0F28A
:10455000C78320F0800343F00203079354EA050366
:104560000E9700F093830F461192B348CEE223AA30
:1045700009990A9802F002FF48B90DF1C00952E703
:10458000259B23B10A98099923AA02F0F7FE099BFB
:104590009B8913F0400F0B9B18BF4FF0FF33184659
:1045A00041B0BDE8F08F1193AB46002A41F0338251
:1045B000079A12F0200300F02E820E9F073727F093
:1045C0000703002703F10801BB450E91D3E900451D
:1045D0008DF86F70C0F2798722F08003079354EA58
:1045E000050300F0758330AEE20842EA4572E9083F
:1045F00004F007030D461446303354EA050206F86A
:10460000013DF1D1079AD10740F18480302B00F0B1
:1046100081803022731E06F8012C30AAD21A0D9226
:104620001E467AE098F800302A2B08F1010401F0C8
:10463000B981A3F13000092898BF002501F26C81EF
:1046400014F8013B05EB850500EB4505A3F13000AF
:104650000928F5D945EAE575A046FAE6079B43F037
:104660008003079398F80030F1E6A3F130000023AF
:104670001C4618F8013B04EB840400EB4404A3F14E
:1046800030000928F5D90C94E3E61193AB46002AD3
:1046900041F0AB81079B43F010030793079B9806FB
:1046A00040F130850E9F073727F00707D7E9002331
:1046B00007F108010E9114461D46002A73F100030C
:1046C000C0F25B85BBF1000F9DF86F70C0F23885BA
:1046D000079B23F08003079354EA050300F0DB8176
:1046E000002D08BF0A2CC0F0DB8130AE20462946E1
:1046F0000A220023FEF76EFE303206F8012D204616
:10470000294600230A22FEF765FE04460D4654EAB8
:104710000503EBD130AB9B1B0D930D9B5B45B8BFE5
:104720005B4608930023139317B1089B013308934A
:10473000079B13F002030F9302D0089B02330893E8
:10474000079B13F08403109340F0D7820C9B089AC8
:104750009D1A002D40F3D182102D2599249A374FB0
:1047600027DD189648461024B946099E2F460A9D13
:1047700004E0103F102F00F1080016DD01322F4B2E
:1047800024921031072A259180E81800F1DD23AA30
:104790003146284602F0F2FD00287FF4F8AE103FC3
:1047A000102F2599249A30A8E8DC189E3D464F46E4
:1047B000814601326C18072A25942492C9F80070AA
:1047C000C9F8045000F328849DF86F7009F10809B6
:1047D00077B1249B013301340DF16F010122072BC6
:1047E0002594249389E8060000F3A08309F10809C1
:1047F0000F9B6BB1249B013302341CA90222072BAF
:104800002594249389E8060000F39C8309F10809A4
:10481000109B802B00F0D5820D9BC3EB0B07002F64
:1048200039DD074A249B0F92102F28DD22464FF0D6
:10483000100B0A9D099C0AE03C7800005C7800009F
:1048400008780000103F102F09F1080916DD013328
:104850001032072B2592249389E8000CF2DD23AA5D
:104860002146284602F08AFD00287FF490AE103FD2
:10487000102F259A249B0DF1C009E8DC1446013362
:104880000F9A24933C44072B259489E8840000F375
:10489000418309F10809079BDA0500F13082249B66
:1048A0000D99C9F8006001330C44072B2594C9F811
:1048B0000410249300F3188309F10809079B590792
:1048C0003FD50C9B089A9D1A002D3ADD102D249B94
:1048D000BC4F23DD22461026DDF828B0099C04E0F9
:1048E000103D102D09F1080917DD0133B549249356
:1048F0001032072B259289E84200F1DD23AA2146D8
:10490000584602F03BFD00287FF441AE103D102DCB
:10491000259A249B0DF1C009E7DC144601332C4491
:10492000072B25942493C9F80070C9F8045008DDBA
:1049300023AA09990A9802F021FD00287FF427AEE6
:10494000259C0B9B0C9A08998A42ACBF9B185B185C
:104950000B93002C40F0D482002324930DF1C00966
:1049600042E51193AB46002A41F051800E9F073774
:1049700027F0070303F108020E921A6814925B688D
:104980001593159B149D23F00044284621464FF0B3
:10499000FF328D4BFEF708FD002840F0C284284608
:1049A00021464FF0FF32884BFEF7E0FC002840F034
:1049B000B8841498159900220023FEF7CDFC002836
:1049C00040F04F879DF86F70804E814B079921F022
:1049D00080010791119903224FF0000B089247299B
:1049E000D8BF1E460D92CDF84CB09DE6079B43F014
:1049F0000803079398F8003029E51193AB46002A85
:104A000041F01180079B43F010030793079A12F0BF
:104A100020037FF4D2AD079911F0100200F02C852D
:104A20000E988DF86F30BBF1000F046800F1040799
:104A30004FF00005C0F248850A4622F08002079236
:104A400054EA05020E9700F043811F46CBE511930F
:104A5000AB46002A40F0E387079B43F0100307931F
:104A6000079A12F0200300F032830E9F073727F0D9
:104A70000703002703F10801BB450E91D3E9004568
:104A80008DF86F70C0F25C8322F08003079354EAC4
:104A900005037FF425AEBBF1000F00F0FE8000247B
:104AA00040AE303406F8414D34E61193AB46002A4F
:104AB00040F09787079B47489D0640F197800E9FDF
:104AC000073727F00703D3E9004503F108020E92E8
:104AD000079A12F0010700F0418254EA050300F042
:104AE00005859DF844208DF871200027079A8DF8E0
:104AF0006F703023BB458DF8703042F00203C0F276
:104B0000B58622F0800343F00203079330AE2309F9
:104B100004F00F0143EA05732A091C461546435C5D
:104B200006F8013D54EA0503F1D1F3E50E9911931E
:104B30000A688DF8982000230A461F468DF86F30CA
:104B4000043201230893BB4613970E920D9326AEB1
:104B5000EEE51193AB46002A3FF4A0AD8DF86F103F
:104B60009CE5079B43F04003079398F800306EE400
:104B700098F8003000297FF46AAC0122202166E415
:104B8000079B43F00103079398F800305FE40E9C05
:104B900023680C9318460028234603F10403FFF60C
:104BA000B8AC0E9398F8003051E498F80030012228
:104BB0002B214CE41193AB46002A3FF451AF8DF802
:104BC0006F104DE75C780000FFFFEF7F1C7800005E
:104BD00018780000287800001193AB46002A40F0B6
:104BE0002A87079B99489D063FF569AF079BDC061E
:104BF00040F135840E9A1346043314680E93002551
:104C000066E798F800306C2B00F0E284079840F0DB
:104C1000100007901BE4002A40F00987079B9B06C1
:104C200040F106840E9A0B991368CD17084604329A
:104C300029460E92C3E90001FFF7D6BB079B43F05C
:104C40002003079398F8003001E40E9A1193166838
:104C500000248DF86F40171D002E00F0CD85002D2B
:104C6000C0F218852A462146304602F029F800286D
:104C700000F02A86831B0D93A34623EAE3730E9765
:104C80000893CDF84CB09DF86F704DE56F481192C8
:104C9000BBF1000F40F073815F464FF0000BCDF881
:104CA00034B030AE39E51193002A40F0AC86119A49
:104CB000002A3FF465AC002301211F4608918DF8BE
:104CC00098208DF86F309B4613930D9126AE2FE5FB
:104CD000BBF1000F00F0038600270024002582E4CA
:104CE0005A480793119254EA05030E974FF00007B4
:104CF0007FF40CAF0024002508E7259C68E5119B94
:104D0000652B40F3A9801498159900220023FEF723
:104D100019FB002800F03581249B4D4AC9F800207A
:104D2000013301340122072B25942493C9F8042070
:104D300000F3E88309F108091D9B129A934203DBF3
:104D4000079BDB077FF5BAAD249B1699179AC9F824
:104D5000002001330C44072B2594C9F80410249338
:104D600000F3408409F10809129B5D1E002D7FF7B6
:104D7000A5AD384A249B0F92102D40F3E6811026F2
:104D80000A9FDDF824B005E009F10809103D102D57
:104D900040F3DB8101331034072B25942493C9F8A9
:104DA00000A0C9F80460EFDD23AA5946384602F096
:104DB000E5FA00287FF4EBAB259C249B0DF1C0099C
:104DC000E4E70C9B089A9F1A002F7FF725AD214A34
:104DD000249B0F92102F2BDD4A462146B946102501
:104DE00037460A9C099E06E0A9F11009B9F1100F97
:104DF00002F1080218DD01331031072B25912493AD
:104E0000C2F800A05560EFDD23AA3146204602F02B
:104E1000B5FA00287FF4BBABA9F11009B9F1100F66
:104E20002599249B30AAE6DC3E460C464F46914627
:104E300001330F9A24933C44072B259489E884007E
:104E400000F3458209F10809E6E400BF3C78000060
:104E50005878000008780000129B249D012B40F335
:104E60000882013501340123072D25942495C9F8C2
:104E70000060C9F8043000F30D8209F10809169AA0
:104E8000179BC9F8003001351444072D259424954B
:104E9000C9F8042000F30E8209F1080900231498D0
:104EA00015990022FEF74EFA129B002840F0C380AD
:104EB000013B013501361C44072D24952594C9F882
:104EC0000060C9F8043000F3F58009F10809199A67
:104ED000C9F80420013514441FAB072D25942495EF
:104EE000C9F800307FF7E8AC23AA09990A9802F0C4
:104EF00045FA00287FF44BAB259C0DF1C009DDE499
:104F000023AA09990A9802F039FA00283FF424AD3F
:104F1000FFF73DBB23AA09990A9802F02FFA00284F
:104F20007FF435AB259C0DF1C009B4E423AA09999F
:104F30000A9802F023FA00287FF429AB259C0DF192
:104F4000C00955E423AA09990A9802F017FA002823
:104F50007FF41DAB259C0DF1C00959E4BBF1000F96
:104F60008DF86F70C0F2DA8222F08003079354EA62
:104F700005037FF4CBADBBF1000F3FF48DAE0027EE
:104F8000B8E61D9D002D40F3CC82139B129A9342EC
:104F9000A8BF1346002B1D460DDD249BC9F80060F9
:104FA00001332C44072B2594C9F80450249300F3B3
:104FB000A38309F10809139B002DA8BF5B1B002BDD
:104FC0001D4640F3F680BA4A249B0F92102D40F301
:104FD000808222461027DDF828B0099C05E009F1FF
:104FE0000809103D102D40F3738201331032072B56
:104FF00025922493C9F800A0C9F80470EFDD23AA14
:105000002146584602F0BAF900287FF4C0AA259A32
:10501000249B0DF1C009E4E723AA09990A9802F03C
:10502000ADF900287FF4B3AA9DF86F70259C0DF1AF
:10503000C009FFF7CDBB5E1E002E7FF748AF9C4B2B
:105040000F93102E2CDDCDF834801027B046DDF8FC
:1050500028B0099E06E0A8F11008B8F1100F09F178
:1050600008091ADD01351034072D25942495C9F857
:1050700000A0C9F80470EEDD23AA3146584602F0BC
:105080007DF900287FF483AAA8F11008B8F1100F69
:10509000259C249D0DF1C009E4DC4646DDF83480F2
:1050A0000F9B01353444072D2594249589E8480049
:1050B0007FF70BAF23AA09990A9802F05FF900283D
:1050C0007FF465AA259C249D0DF1C009FFE6079990
:1050D00011F0100200F008810E988DF86F30BBF1CE
:1050E000000F046800F104074FF0000526DB0A46B4
:1050F00022F08002079254EA05020E971F467FF4C1
:10510000EFAAC8E4079BD9062AD4079B5A0627D5DD
:105110000E99B1F900400431E51722462B460E9155
:10512000FFF7CBBA0E998DF86F30BBF1000F0C680A
:1051300001F104074FF0000580F245820E971F46EB
:1051400054EA05037FF4CCAAAAE401330F9A24930E
:105150002C44072B259489E824007FF7ADABC3E6E8
:105160000E9A146813460433E51722460E93002A5C
:105170002B4673F10003BFF6A5AA64424FF02D073A
:1051800065EB4505BBF1000F8DF86F70FFF6A8AA1F
:10519000079B23F080030793FFF7A2BA23AA09997C
:1051A0000A9802F0EBF800287FF4F1A9259C0DF194
:1051B000C009139A1D9B32441746129A934247DB4B
:1051C000079AD50744D412990E44F51BCB1A9D4279
:1051D000A8BF1D46002D2E460DDD249AC9F800708B
:1051E00001322C44072A2594C9F80450249200F374
:1051F000128309F10809002EACBF9D1B1D46002D2E
:105200007FF75CAB2A4A249B0F92102D9DDD102660
:105210000A9FDDF824B004E009F10809103D102DC3
:1052200093DD01331034072B25942493C9F800A093
:10523000C9F80460F0DD23AA5946384602F09EF80A
:1052400000287FF4A4A9259C249B0DF1C009E5E763
:10525000249A16981799C9F8001001320444072AB5
:105260002594C9F80400249200F3A58209F10809E5
:10527000A9E7079BD8073FF5F4AD013501340123B9
:10528000072D25942495C9F80060C9F804307FF7EC
:105290001CAE0FE723AA09990A9802F06FF80028BC
:1052A0007FF475A9259C249D0DF1C009E7E500BF99
:1052B0000878000023AA09990A9802F05FF80028EC
:1052C0007FF465A9259C249D0DF1C009E6E523AA7C
:1052D00009990A9802F052F800287FF458A9259CF1
:1052E0000DF1C009FFF798BA079911F040033FF498
:1052F00019AF0E988DF86F200346BBF1000F03F134
:10530000040304884FF00005C0F2B98121F0800148
:10531000079154EA05010E9317467FF4E1A9FFF7C0
:10532000BABB149C22462046159C23462146FEF714
:105330003BF8002840F01583119BBBF1FF3F23F0A1
:1053400020030D9300F07682472B00F09281079B9B
:1053500043F480731093159B1F1E149B0893BBBFCF
:105360003B4603F1004700232D230F93119B662B2F
:1053700000F06382462B00F05E810D9B089A452B5E
:1053800021A81EA90CBF0BF101055D4604900391F5
:105390001DA802213B460290019500910A9800F059
:1053A00007FC119B672B064640F07D82079BDA07BE
:1053B00040F1BF8274190898394600220023FDF796
:1053C000C1FF002840F0A481219B9C4206D93021D6
:1053D0005A1C21921970219B9C42F9D89B1B129355
:1053E0000D9B472B00F08181119B652B40F36A8256
:1053F000119B662B1D9B139300F04782139A129901
:105400008A42C0F23682079BD90700F1898222EADC
:10541000E2730D92672211920F9A002A40F05B818D
:105420000893109B079393469DF86F70FFF77CB924
:10543000079BDF060BD4079B5E0608D50E9A136800
:1054400004320E92BDF82C201A80FEF7CDBF0E9AC2
:10545000136804320E920B9A1A60FEF7C5BF079BC1
:105460000E9A13F0400F134600F00E810433148897
:105470000E930025FFF72CBB079911F0400317D0BE
:105480000E988DF86F200346BBF1000F03F1040363
:1054900004884FF00005C0F2F58021F080010791EB
:1054A00054EA05010E933FF413AC1746FFF79BB87F
:1054B0000E998DF86F30BBF1000F0C6801F10407F5
:1054C0004FF0000580F281800E970027FFF78BB820
:1054D000144601330F9A24932C44072B259489E812
:1054E00024003FF75BAE09F1080962E60027BB45DF
:1054F0008DF86F70FFF6FEAB079B23F080030793D8
:10550000FFF7C6BB23AA09990A9801F037FF0028C4
:105510007FF43DA8259C0DF1C0090DE40E9FFFF717
:10552000E2BB249BB14AC9F80020013301340122B7
:10553000072B25942493C9F804206FDC09F108098E
:105540002DB9129B1BB9079BDF077FF5B7A9249BD9
:105550001699179AC9F8002001330C44072B25949B
:10556000C9F80410249300F3C98109F108096D42B8
:10557000002D40F3A3809E4A0F92102D40F3298105
:1055800022461027DDF828B0099C05E009F108093A
:10559000103D102D40F31C8101331032072B259252
:1055A0002493C9F800A0C9F80470EFDD23AA2146AE
:1055B000584601F0E3FE00287EF4E9AF259A249BCB
:1055C0000DF1C009E4E7079A92E5079AFFF735BAAB
:1055D000079B43F02003079308F1010898F8003077
:1055E000FEF735BF23AA09990A9801F0C7FE0028E3
:1055F0007EF4CDAF259C0DF1C009FFF7B5BB40216E
:105600000A98FEF7A9F8099A10601061002800F0C6
:10561000F381099A40235361FEF7D7BE23AA099963
:105620000A9801F0ABFE00287EF4B1AF1D9D259CC9
:105630000DF1C00984E721A81EA9049003911DA8BB
:1056400003210290089ACDF804B03B4600910A98D5
:1056500000F0AEFA5D460646119B462B06EB0504AC
:105660007FF4A9AE3378302B00F06D811D9D2C4462
:10567000A1E6BBF1000F08BF4FF0010B67E60E93E8
:1056800017465DE50E9320E7043314680E9300255A
:10569000FFF71EBA3046FEF713FEA34603460D90F1
:1056A000FFF7EBBA23AA09990A9801F067FE0028D0
:1056B0007EF46DAF259C249B0DF1C0091299C9F8A9
:1056C000006001330C44072B25942493C9F804107F
:1056D0007FF7F2A808E42D270893109B07938DF815
:1056E0006F704FF0000BFFF720B81D9BDD1C11DB26
:1056F0009B450FDB139381E623AA09990A9801F0D1
:105700003DFE00287EF443AF259C0DF1C00952E414
:10571000234663E6119A023A1192013B002B9DF851
:1057200044201D93B8BF5B428DF87C20B4BF2D226E
:105730002B22092B8DF87D2040F3FD800DF18B008D
:1057400004462C4A82FB0321DA17C2EBA10202EBCA
:105750008201A3EB410303F13001092A134604F847
:10576000011DEEDC21463033DAB201F8012D88420A
:1057700040F23F810DF17E01234601E013F8012B39
:1057800001F8012B9842F9D1431C1B1B0DF17E023D
:1057900013441FAA9B1A129A1993012A13440D93BA
:1057A00040F3F6800D9B169A134400220D9313923A
:1057B00023EAE37330E623AA09990A9801F0DEFD93
:1057C00000287EF4E4AE1D9B259C0DF1C009FAE48F
:1057D000144601330F9A24932C44072B259489E80F
:1057E00024003FF75FAF09F1080967E75878000028
:1057F0000878000067666666062D2B4628BF0623DC
:105800000D9323EAE373B3460E9713963746089336
:105810008B4EFEF789BF23AA09990A9801F0AEFDC5
:1058200000287EF4B4AE1D9B129A259CD31A0DF16C
:10583000C009E0E44FF0060B89E521A81EA90490F9
:1058400003911DA803210290089ACDF804B03B46AD
:1058500000910A9800F0ACF95D46064600EB0B0497
:1058600000E72D278DF86F70FFF7AEB80793FFF7AD
:105870004DB9169A129B1344139A0D93002A7FDD9B
:10588000672223EAE3731192C6E5002B40F3988068
:10589000BBF1000F6BD1079AD40768D41A460D925A
:1058A00023EAE373B8E5119B472B7FF483AD079B95
:1058B000DB073FF5D1AE219B9B1B12930D9B472B22
:1058C0003FF413AF1D9B28E725EAE5730E97089375
:1058D0000D95834613909DF86F70FEF725BF079BCB
:1058E000DB075F4605D540AE302306F8413DFEF7A5
:1058F00011BFCDF834B030AEFEF70FBF23AA09991F
:105900000A9801F03BFD00287EF441AE1D9D259CC8
:10591000249B0DF1C0092AE6A0460025FEF799BD9B
:10592000169A139B134467220D93119223EAE37393
:1059300072E5219B52E5303330228DF87F308DF8AF
:105940007E2020AB25E70898394600220023FDF78A
:10595000F9FC00287FF48AAEC5F101051D952C44A1
:1059600029E5384E384B9DF86F70FFF72FB8139B21
:10597000169A9D1805EB0B030D9323EAE3734BE591
:10598000139B0D9AC3F101031A4413460D9277E756
:10599000079B13F001037FF405AF13930D9B23EADC
:1059A000E37339E50E9898F8013005680430002D4E
:1059B0000E90A046BEF64BAD4FF0FF35FEF747BD4B
:1059C000BBF1000F02D1079BD80707D5169B5D1CC2
:1059D00005EB0B030D9323EAE3731DE501230D9300
:1059E0001AE58DF86F10FFF765B88DF86F10FEF7A8
:1059F00051BE0DF17E03CCE60A9A0C2313604FF0E2
:105A0000FF30FEF7CDBD8DF86F10FFF750B98DF860
:105A10006F10FEF7ABBF8DF86F10FEF7C9BD8DF8A4
:105A20006F10FFF719B88DF86F10FEF7EBBF8DF808
:105A30006F10FFF7F3B88DF86F10FFF7D2B800BF03
:105A400050780000247800002078000021B1FF2A5F
:105A500004D80A7001207047084670478A23036003
:105A60004FF0FF30704700BF024B13B1024800F007
:105A700005B8704700000000096A000000230146D5
:105A80001A46184601F0FABC02690B69934200F30A
:105A90008D802DE9F04F03F1FF3801F1140700F17B
:105AA000140B57F828205BF828304FEA880483B09D
:105AB0000132B3FBF2F90BEB0403009407EB040A89
:105AC0000193B9F1000F39D00025BC46DE462B46C4
:105AD0005CF8046BDEF80020B4B209FB0455360C08
